:020000040800F2
:100000000050002099020008E9020008E9020008F7
:10001000E9020008E9020008E90200080000000007
:10002000000000000000000000000000E9020008DD
:10003000E902000800000000E9020008E9020008E7
:10004000E9020008E9020008E9020008E9020008E4
:10005000E9020008E9020008E9020008E9020008D4
:10006000E9020008E9020008E9020008E9020008C4
:10007000E9020008E9020008E9020008E9020008B4
:10008000E9020008E9020008E9020008E9020008A4
:10009000E9020008E9020008E9020008E902000894
:1000A000E9020008E9020008E9020008E902000884
:1000B000E9020008E9020008E9020008E902000874
:1000C000E9020008E9020008E9020008E902000864
:1000D000E9020008E9020008E9020008E902000854
:1000E000E9020008E902000800000000E902000837
:1000F000E9020008E9020008E9020008E902000834
:10010000E9020008E9020008E9020008E902000823
:10011000E9020008E9020008E9020008E902000813
:10012000E9020008E9020008E9020008E902000803
:1001300010B5054C237833B9044B13B10448AFF321
:1001400000800123237010BD00000020000000008B
:100150003403000808B5034B1BB103490348AFF350
:10016000008008BD000000000400002034030008E7
:1001700080B400AF074B1B68064A43F004031360CA
:10018000044B1B68034A43F00803136000BFBD46DD
:1001900080BC70471810024080B400AF134B00229F
:1001A0001A60134B00221A60124B00221A60124B85
:1001B00000221A600D4B1B680C4A43F04003136089
:1001C0000B4B1B680A4A43F480231360094B1B68DE
:1001D000084A43F010031360074B1B68064A43F4B8
:1001E0008033136000BFBD4680BC704700080140EB
:1001F00004080140000C0140040C014080B500AF30
:10020000FFF7B6FFFFF7C8FF124B1B6803F00203AE
:10021000002B0CD1104B1B680F4A83F002031360B4
:1002200000BF0C4B1B6803F00203002BF9D0094BF5
:100230001B681B0B03F00103012B05D1064B1B6848
:10024000054A83F4805313604FF47A7000F006F887
:10025000DAE700BF080801400C0C014080B485B00B
:1002600000AF78600023FB600BE00023BB6002E07E
:10027000BB680133BB60BB68FE2BF9DDFB68013353
:10028000FB60FB687A689A42EFD800BF00BF143762
:10029000BD4680BC704700000D488546AFF3008026
:1002A0000C480D490D4A002302E0D458C4500433D1
:1002B000C4188C42F9D30A4A0A4C002301E01360A7
:1002C0000432A242FBD300F011F8FFF797FFFEE7DC
:1002D000005000200000002000000020540300080F
:1002E000000000201C000020FEE7000070B5002682
:1002F0000C4D0D4C641BA410A64209D100F01AF855
:1003000000260A4D0A4C641BA410A64205D170BDFC
:1003100055F8043B98470136EEE755F8043B9847FB
:100320000136F2E74C0300084C0300084C030008B8
:1003300050030008F8B500BFF8BC08BC9E467047E3
:0C034000F8B500BFF8BC08BC9E46704732
:04034C00550100084F
:04035000310100086F
:040000050800029954
:00000001FF
