S00C00004C6162332E73726563D6
S11300000C942A000C9449000C946B000C948D0001
S11300100C9434000C9434000C9434000C9434008C
S11300200C9434000C9434000C9434000C9434007C
S11300300C9434000C9434000C9434000C9434006C
S11300400C9434000C9434000C9434000C9434005C
S11300500C94340011241FBECFE5D8E0DEBFCDBF21
S11300600E9436000C94AF000C94000081B3806EA3
S113007081BB85B78D6085BF85B78D7F85BF84B70C
S11300808F7B84BF8BB7806E8BBF8FB780688FBF29
S1130090FFCF1F920F920FB60F9211242F938F93BD
S11300A09F9382B3806282BB2FE38DE093E0215063
S11300B080409040E1F700C0000082B38F7D82BB96
S11300C08AB78F7B8ABF9F918F912F910F900FBE1C
S11300D00F901F9018951F920F920FB60F92112434
S11300E02F938F939F9382B3806482BB2FE38DE021
S11300F093E0215080409040E1F700C0000082B3BB
S11301008F7B82BB8AB78F778ABF9F918F912F9104
S11301100F900FBE0F901F9018951F920F920FB65D
S11301200F9211242F938F939F9382B3806882BB85
S11301302FE38DE093E0215080409040E1F700C030
S1130140000082B38F7782BB8AB78F7D8ABF9F916D
S11301508F912F910F900FBE0F901F901895F894C8
S1050160FFCFCB
S9030000FC
